:0400000047EF14F0C2
:0800080059EF00F000000000B8
:100010000000000000000000046ED8CF05F0E0CF23
:1000200006F00001E9CF0CF0EACF07F0E1CF08F0CD
:10003000E2CF09F0D9CF0AF0DACF0BF0F3CF12F00C
:10004000F4CF13F0FACF14F0F5CF15F0F6CF16F089
:10005000F7CF17F000C00EF001C00FF002C010F093
:1000600003C011F00EC000F00FC001F010C002F08C
:1000700011C003F00CC0E9FF07C0EAFF078E08C0FB
:10008000E1FF09C0E2FF0AC0D9FF0BC0DAFF12C0CE
:10009000F3FF13C0F4FF14C0FAFF15C0F5FF16C03C
:1000A000F6FF17C0F7FF045006C0E0FF05C0D8FFF9
:1000B0001000196ED8CF1AF0E0CF1BF00001E9CF85
:1000C00021F0EACF1CF0E1CF1DF0E2CF1EF0D9CF36
:1000D0001FF0DACF20F0F3CF27F0F4CF28F0FACFDB
:1000E00029F0F5CF2AF0F6CF2BF0F7CF2CF000C097
:1000F00023F001C024F002C025F003C026F0F2AACC
:1001000085EF00F0F2B4E5EF01F023C000F024C069
:1001100001F025C002F026C003F021C0E9FF1CC099
:10012000EAFF1C8E1DC0E1FF1EC0E2FF1FC0D9FF09
:1001300020C0DAFF27C0F3FF28C0F4FF29C0FAFF70
:100140002AC0F5FF2BC0F6FF2CC0F7FF19501BC0CB
:10015000E0FF1AC0D8FF1000F76A680FF66E010EB4
:10016000F7220900F55012005455524B43452C46D6
:1001700052414E434149532C446575747363682C56
:10018000456E676C6973682C0000F76A9A0FF66E0B
:10019000010EF7220900F55012004F544F2044453C
:1001A0005A454E46454B54452C4465706F2C53754B
:1001B00072652C4F7274612C4B6179646564696C53
:1001C00064692C5375726520417961722C444F4EDD
:1001D000414E494D204B4F4E542E2C44494C2053F8
:1001E00045432C43494B49532C424F532C5361797F
:1001F00061632C42656B6C656D6520537572657328
:10020000692C0000F76A140FF66E020EF72209003F
:10021000F5501200446573696E66656374696F6EAC
:100220002E2E2E2C5265736572766F69722C546572
:100230006D70732C4D696C6965752C456E726567C0
:1002400069737472652C5265676C6167657320749D
:10025000656D70732C436F6E742E206D61746572C2
:1002600069656C2C63686F6973697373657A206C58
:10027000616E672E2C536F727469652C5649444524
:10028000532C436F6D707465722C54656D707320C0
:100290006427617474656E74652C0000F76AAC0F96
:1002A000F66E020EF7220900F550120044657369DC
:1002B0006E66656B74696F6E2E2E2E2C5370656999
:1002C000636865722C5A6569742C4D697474652C69
:1002D00047657370656963686572742C5A656974E3
:1002E00065696E7374656C6C756E672C48617264B9
:1002F00077617265737465756572756E672C576189
:10030000686C652064696520537072616368652C50
:1003100041757366616872742C4C4545522C416E70
:100320007A61686C2C57617274657A6569742C0007
:10033000F76A400FF66E030EF7220900F55012001F
:10034000446973696E66656374696F6E2E2E2E2C18
:1003500053746F72652C54696D652C4D6964646CBF
:10036000652C53617665642C54696D652053657402
:1003700074696E672C486172647761726520436F9F
:100380006E74726F6C2C43686F6F7365204C616E76
:1003900067756167652C457869742C454D505459D3
:1003A0002C436F756E742C5374616E6462792054A3
:1003B000696D652C0000F76AC60FF66E030EF72212
:1003C0000900F5501200280C0106D76A050ED66EFA
:1003D000010E2E26D8B02F2AD8B4302AD8B4312A0C
:1003E000F294F29485EF00F00C524F4C453A000025
:1003F0000A3C3C3C202020203C3E202020203E3E49
:100400003E000C5345564959453A00000A3C3C3CD5
:10041000202020203C3E202020203E3E3E000A2579
:10042000733A4D494E2D323500000A25733A257333
:100430002D3530000A25733A4D41582D31303000AA
:100440000C445552204C45443A000A3C3C3C202088
:1004500020203C3E202020203E3E3E000C474543CD
:10046000204C45443A000A3C3C3C202020203C3EA5
:10047000202020203E3E3E000C4745434953205358
:10048000454E532E3A000A3C3C3C202020203C3E66
:10049000202020203E3E3E000C4745434953205338
:1004A000454E532E3A000A474543203100000C4781
:1004B000454349532053454E532E3A000A4745437E
:1004C000203200000C4D4F544F523A000A3C3C3C45
:1004D000202020203C3E202020203E3E3E000C0AD2
:1004E000647574793A254C75202020000C0A6475D7
:1004F00074793A254C75202020000C25733D257514
:1005000020530A000A3C3C3C202020203C3E202076
:1005100020203E3E3E000C25733D257520530A00E9
:100520000A3C3C3C202020203C3E202020203E3E17
:100530003E000C25733D257520530A000A3C3C3CC7
:10054000202020203C3E202020203E3E3E000C2546
:10055000733D257520530A000A3C3C3C2020202096
:100560003C3E202020203E3E3E000C25733D25755C
:1005700020530A000A3C3C3C202020203C3E202006
:1005800020203E3E3E000C25733D254C75206D53CA
:100590000A000A3C3C3C202020203C3E2020202019
:1005A0003E3E3E000A3C3C3C202020203C3E202099
:1005B00020203E3E3E000A3C3C3C202020203C3E89
:1005C000202020203E3E3E000C21212573212100C9
:1005D0000C2020202020204D454E55000A3C3C3C5C
:1005E000202020203C3E202020203E3E3E000A3C91
:1005F0003C3C202020203C3E202020203E3E3E004F
:100600000A3C3C3C202020203C3E202020203E3E36
:100610003E000A3C3C3C202020203C3E2020202064
:100620003E3E3E000A3C3C3C202020203C3E202018
:1006300020203E3E3E0056414C4620535552450038
:100640000A3C3C3C202020203C3E202020203E3EF6
:100650003E000A3C3C3C202020203C3E2020202024
:100660003E3E3E000C20202E2E4C59532D3230326F
:10067000302E2E000A20205F5F594F59554E4341BE
:100680004B5F5F000A25733A203F3F3F00000A534B
:10069000454E533A256C75000A25733A4D494E2D47
:1006A000323500000A25733A25732D3530000A25AE
:1006B000733A4D41582D31303000C50ED56ED76A92
:1006C000050ED66EF28AC00EF212E5EF14F0010E9E
:1006D000EA6E990EE96EEF500EE0140E016E006A9C
:1006E000002EFED7012EFBD7BF0E006E002EFED7C8
:1006F00000D0EF2EF2D7120001019EB102D08C90F3
:1007000001D08C8095909EB302D08C9201D08C82C7
:1007100095929EB502D08C9401D08C8495949EB70E
:1007200002D08C9601D08C8695960000959A8C8A82
:100730000A0E006E002EFED70000959A8C9A0001DA
:100740001200010E01019D5F0CE3010EEA6E9D0E89
:10075000E96EEF5006E0040E006E002EFED7EF2E7D
:10076000FAD70001BBEF03F095988C983C0E01017D
:100770009D6F0001E6D701019B5303E095988C889B
:1007800002D095988C980000959A8C9A9C399D6F10
:100790000F0E9D179DC19EF10001AEDF01019C511E
:1007A0000F0B9D6F9E6F0001A7DF120095988C982C
:1007B000959A8C9A0F0E0101996F000188DF010153
:1007C000696B695102080CE3030E9E6F000194DF10
:1007D000050E0101996F00017ADF0101692BF1D744
:1007E000020E9E6F000188DF0101696B69510308E9
:1007F00012E3036A69510001DEDD01016A6F9B6B40
:100800009C6F0001B1DF050E0101996F00015FDFF0
:100810000101692BEBD70001E8EF14F00101982DDD
:1008200001D003D0400E996F01D0996B010E975DF6
:100830009927995180099A6F9B6B9C6F000194DFF7
:100840001200010196510C0A000105E0060A0FE0B2
:10085000020A15E01BD001019B6B010E9C6F000189
:1008600083DF020E0101996F000131DF16D0010E06
:100870000101976F020E986F0001D0DF0ED00101C9
:100880009B6B100E9C6F00016FDF07D0010E010102
:100890009B6F96C19CF1000167DF12000900F552C1
:1008A0000CE0F6CF93F1F7CF94F1F5CF96F1C9DFD5
:1008B00093C1F6FF94C1F7FFF1D7120001019851DF
:1008C000070B006E9831016E013201321F0E0116C6
:1008D00001509A25E96E000E9B21EA6E016A012AF9
:1008E000002A01D00136002EFDD7995303E00150B4
:1008F000EF1203D0011E0150EF160001120001019A
:10090000976B976B9451975D39E295C198F1010E01
:10091000996F0F0E9B6F890E9A6F0001CFDF95C103
:1009200098F10101996B0F0E9B6F920E9A6F000167
:10093000C5DFD89001019331986F996F0001C7DE30
:1009400095C198F10101996B0F0E9B6F890E9A6FFB
:100950000001B4DF95C198F10101996B0F0E9B6FF7
:10096000920E9A6F0001AADFD89001019331986F1F
:10097000996F0001ACDE0101972BC4D70001120072
:1009800039C23DF238C23CF23DC203F002013CC222
:10099000E9FF03C0EAFFEF5232E03BC23FF23AC246
:1009A0003EF23FC203F03EC2E9FF03C0EAFFEF524E
:1009B0000AE138513C5D006E39513D59036E00C06B
:1009C00001F025D012D03DC203F03CC2E9FF03C0C4
:1009D000EAFFEFCF40F23FC203F03EC2E9FF03C09F
:1009E000EAFFEF50405D01E104D03E2BD8B43F2B2D
:1009F000D8D73C2BD8B43D2B0001C6D702013851C3
:100A00003C5D006E39513D59036E00C001F000019C
:100A100080EF05F039C23DF238C23CF23DC203F02E
:100A200002013CC2E9FF03C0EAFFEF522CE03BC2E7
:100A30003FF23AC23EF23FC203F03EC2E9FF03C0BA
:100A4000EAFFEF521AE03DC203F03CC2E9FF03C0E7
:100A5000EAFFEFCF40F23FC203F03EC2E9FF03C01E
:100A6000EAFFEF50405D05E13CC201F03DC202F0FB
:100A70000DD03E2BD8B43F2BDED73C2BD8B43D2B2A
:100A80000001CCD70201000E016E026E00019BEF47
:100A900005F039C23BF238C23AF23BC203F0020120
:100AA0003AC2E9FF03C0EAFFEF5206E03A2BD8B49E
:100AB0003B2B0001F2D7020138513A5D006E3951EB
:100AC0003B59036E00C001F0026E0001B9EF05F062
:100AD00002013051311104E031C203F0305103D032
:100AE00033C003F03250346F03C035F235C239F2EF
:100AF00034C238F233C23BF232C23AF2000140D77C
:100B0000015002013427000E352335C203F034C2F0
:100B1000E9FF03C0EAFFEF5204E1000E016E026E2E
:100B200033D035C239F234C238F233C23BF232C26A
:100B30003AF200016FD702C037F201C036F202016B
:100B4000365302E137530FE037C203F036C2E9FFF4
:100B500003C0EAFFEF6A362BD8B4372B37C233F025
:100B600036C232F00DD035C239F234C238F200014B
:100B700090D7015002013425326E02503521336E78
:100B800034C201F035C202F00001E5EF05F0EA6A77
:100B90006F0EE96E25C2E2FF24C2E1FFE752E6CF05
:100BA000EEFFFCE1010E02012F6F2A6B6F0E296F21
:100BB0002F51285D19E32AC231F229C230F227C22F
:100BC00033F226C232F2000183D702C02CF201C0F8
:100BD0002BF202012B5303E12C5301E105D02F51DD
:100BE0002F2B2A6B296BE4D72BC201F02CC202F009
:100BF0000001120001019351140825E1010EEA6E73
:100C0000970EE96E690E016EF76A000E0001C5ECE1
:100C100000F00A000900F5CFEEFF012EFBD72C0EE5
:100C20000201006F016B010E256F970E246F020EFB
:100C3000276F266B94C128F20001A9DF02C096F14C
:100C400001C095F101019351150826E1010EEA6EEC
:100C5000970EE96E870E016EF76A000E000102EC36
:100C600001F00A000900F5CFEEFF012EFBD72C0E94
:100C700002011E6F1F6B010E256F970E246F020E6F
:100C8000276F1E0E266F94C128F2000180DF02C07C
:100C900096F101C095F101019351160826E1010E6C
:100CA000EA6E970EE96E840E016EF76A000E00017F
:100CB0004EEC01F00A000900F5CFEEFF012EFBD744
:100CC0002C0E02011B6F1C6B010E256F970E246FFB
:100CD000020E276F1B0E266F94C128F2000157DF0A
:100CE00002C096F101C095F101019351170826E168
:100CF000010EEA6E970EE96E750E016EF76A000E30
:100D0000000198EC01F00A000900F5CFEEFF012E7A
:100D1000FBD72C0E02010C6F0D6B010E256F970E89
:100D2000246F020E276F0C0E266F94C128F200016B
:100D30002EDF02C096F101C095F1010195C101F0CD
:100D400096C102F000011200010169514B085AE1FD
:100D50006AC172F1F250006EF29E010EA96E72C16C
:100D6000A8FFA69CA69EA6840F01550EA76EAA0EEC
:100D7000A76EA682A6B2FED7A6940050F2126BC14F
:100D800072F1F2CF00F0F29E020EA96E6BC1A8FFC5
:100D9000A69CA69EA684550EA76EAA0EA76EA68236
:100DA000A6B2FED7A6940050F2126CC172F1F2CF37
:100DB00000F0F29E030EA96E6CC1A8FFA69CA69E31
:100DC000A684550EA76EAA0EA76EA682A6B2FED75F
:100DD000A6940050F2126DC172F1F2CF00F0F29EB3
:100DE000040EA96E6DC1A8FFA69CA69EA684550EF2
:100DF000A76EAA0EA76EA682A6B2FED7A694005032
:100E0000F212010169514F0849E1F2CF72F1F29EED
:100E1000010EA96EA69CA69EA680A85072BFF28E57
:100E20006E6FF2CF72F1F29E020EA96EA69CA69E84
:100E3000A680A85072BFF28E6F6FF2CF72F1F29E51
:100E4000020EA96EA69CA69EA680A85072BFF28E26
:100E5000706FF2CF72F1F29E020EA96EA69CA69E52
:100E6000A680A85072BFF28E716F6E3D0BD06F3DA1
:100E700009D0703D07D0713D05D0000E016E026EA5
:100E80000DD00CD071C103F070C102F06FC101F040
:100E90006EC100F001C002F000C001F000011200BC
:100EA000EF520FE0EACF94F1E9CF93F1EFCF96F153
:100EB000C8DC94C1EAFF93C1E9FFE92AD8B4EA2A61
:100EC000EFD71200D8B204D0010EEA6E810EE96E9F
:100ED000006A016A026A036A0101816B826B836B9B
:100EE000846B80517F117E117D112CE0200E856F67
:100EF000D89079377A377B377C3781378237833799
:100F000084378051845D08E17F51835D05E17E5126
:100F1000825D02E17D51815D0FE37D51815F7E51F4
:100F2000D8A07E3D825F7F51D8A07F3D835F8051F6
:100F3000D8A0803D845FD880003601360236033663
:100F4000852FD6D781C1EFFF82C1ECFF83C1ECFFB3
:100F500084C1ECFF00011200E9500101716F3B0EEA
:100F6000786F9A0E776FCA0E766F756B0A0E736F75
:100F7000D882010EEA6E6D0EE96E70C17CF16FC110
:100F80007BF16EC17AF16DC179F178C180F177C1E1
:100F90007FF176C17EF175C17DF1000193DF0150D3
:100FA000005213E101017351010AD8A402D00001DB
:100FB0000CD071510CE00F0B735D01E00FE271BFBB
:100FC0000DD071BD04D0200E03D00101716B300E25
:100FD000002600C096F1000134DC0101D89278C1EE
:100FE0007CF177C17BF176C17AF175C179F1806BC3
:100FF0007F6B7E6B0A0E7D6F000164DF03C078F1AA
:1010000002C077F101C076F100C075F10101732FC4
:10101000AFD7000112000900F6CF94F1F7CF95F198
:10102000F5CF96F10EDC94C1F6FF95C1F7FF0101F3
:10103000932F01D002D00001EED700011200010170
:10104000756B766B010E776FDA6AD96A7A6F6D0EFF
:10105000796F010EEA6E710EE96E7AC1E2FF79C115
:10106000E1FF77C178F1D890E550EE02F350752397
:10107000F4507623782FF7D775C1DEFF76C175F16E
:10108000766BD8B0762B792BD8B47A2B772B775117
:101090000508DFE10001120001016F517103F3CF78
:1010A00001F0F4CF00F07203F35000267051710389
:1010B000F3500020026E0001120001016E6B6D6B97
:1010C0006F6B050E6F6F6F5107082CE36F35006E65
:1010D0000036FC0E0016C250830B0010C26E6A0E62
:1010E000006E002EFED70000C282C2B2FED7C3CF70
:1010F0006DF1C4CF6EF16F51050804E16EC15BF074
:101100006DC15AF06F51060804E16EC15DF06DC10A
:101110005CF06F51070804E16EC15FF06DC15EF0D5
:101120006F2BD1D70001120001017251016A715D6C
:1011300003E271C100F00CD0006A080E736F7137C2
:1011400000367251005CD8B0006E0136732FF7D7AD
:101150000001120001506FC171F1640E0101726F44
:101160000001E2DF00C06FF10150300E08E1010123
:1011700070A310D070B70ED070B9200E04D001014A
:10118000709770997081012601C096F1000121ECE1
:1011900004F001016FC171F10A0E726F0001C4DF2A
:1011A00000C06FF10150300E08E1010170B70BD0A3
:1011B00070A109D070B9200E0001012601C096F17E
:1011C00021EC04F00101300E6F276FC196F1000190
:1011D00021EC04F01200F2CF6FF1F29EA96AA69CF6
:1011E000A69EA680A85001016FBFF28E6E6F6E5151
:1011F000640802E2010E6E6F60C093F1030E946FFB
:101200000001F8DC02C06DF101C06CF10C0E0101AF
:10121000966F000121EC04F06DC1EAFF6CC1E9FF9B
:101220003FDE3D0E0101966F000121EC04F06EC11E
:101230006FF11B0E0101706F00018CDF000EF66E66
:10124000050EF76E030E0101936F0001E4DE040E3C
:10125000F66E050EF76E4EEC04F0040E01016F6F92
:10126000FA0E996F000167EC03F001016F2FF8D7B8
:10127000010E976F986F00010EEC04F00C0E010147
:10128000966F000121EC04F06DC1EAFF6CC1E9FF2B
:1012900007DE3D0E0101966F000121EC04F06EC1E6
:1012A0006FF11B0E0101706F000154DF1C0EF66E12
:1012B000050EF76E030E0101936F0001ACDE200EE8
:1012C000F66E050EF76E4EEC04F0928A80BA19D0D5
:1012D000640E0101996F000167EC03F0320E010109
:1012E000936F020E946F7C0E966F150E956F000132
:1012F0007FEC04F001016E076E5302E1010E6E6F88
:101300000001928480B415D0640E0101996F000130
:1013100067EC03F0320E0101936F020E946F7C0EA6
:10132000966F150E956F00017FEC04F001016E2B96
:101330000001640E0101996F000167EC03F09286D1
:1013400080A602D0010194D7320E0101936F020EE4
:10135000946F7C0E966F150E956F00017FEC04F074
:10136000F250006EF29EA96A6EC1A8FFA69CA69ECE
:10137000A6840F01550EA76EAA0EA76EA682A6B26E
:10138000FED7A6940050F2126EC155F060C093F1E2
:10139000050E0101946F00012DDC02C06DF101C04A
:1013A0006CF10C0E0101966F000121EC04F06DC18F
:1013B000EAFF6CC1E9FF74DD040E01016F6FFA0EE4
:1013C000996F000167EC03F001016F2FF8D700015E
:1013D000FBEF12F0F2CF6FF1F29E050EA96EA69C04
:1013E000A69EA680A85001016FBFF28E6E6F6E514F
:1013F000640802E2010E6E6F60C093F1030E946FF9
:101400000001FAEC05F002C06DF101C06CF10C0EA8
:101410000101966F000121EC04F06DC1EAFF6CC17F
:10142000E9FF3EDD3D0E0101966F000121EC04F065
:101430006EC16FF11B0E0101706F00018BDE380E63
:10144000F66E050EF76E030E0101936F0001E3DDEA
:101450003C0EF66E050EF76E4EEC04F0040E010124
:101460006F6FFA0E996F000167EC03F001016F2FA7
:10147000F8D7010E976F986F00010EEC04F00C0E78
:101480000101966F000121EC04F06DC1EAFF6CC10F
:10149000E9FF06DD3D0E0101966F000121EC04F02D
:1014A0006EC16FF11B0E0101706F000153DE540E0F
:1014B000F66E050EF76E030E0101936F0001ABDDB2
:1014C000580EF66E050EF76E4EEC04F0928A80BA56
:1014D00019D0640E0101996F000167EC03F0320E20
:1014E0000101936F020E946F7C0E966F150E956F2F
:1014F00000017FEC04F001016E076E5302E1010E62
:101500006E6F0001928480B415D0640E0101996F52
:10151000000167EC03F0320E0101936F020E946F2D
:101520007C0E966F150E956F00017FEC04F00101A3
:101530006E2B0001640E0101996F000167EC03F04E
:10154000928680A602D0010194D7320E0101936FDA
:10155000020E946F7C0E966F150E956F00017FEC56
:1015600004F0F250006EF29E050EA96E6EC1A8FF47
:10157000A69CA69EA6840F01550EA76EAA0EA76E66
:10158000A682A6B2FED7A6940050F2126EC157F002
:1015900060C093F1050E0101946F0001FAEC05F0B3
:1015A00002C06DF101C06CF10C0E0101966F0001DB
:1015B00021EC04F06DC1EAFF6CC1E9FF71DC040E9F
:1015C00001016F6FFA0E996F000167EC03F00101E2
:1015D0006F2FF8D700013DEF13F0EACF79F1E9CF93
:1015E00078F101017239F009746F7427E20F756F99
:1015F000320F776F72510F0B752775277727E90F19
:10160000766F7627762771390F0B7627772776370F
:101610007737771F773771510F0B77277437070E9E
:10162000736F0A0E76077727FDE375077627FDE3CC
:1016300074077527FDE373077427FDE3010EEA6E57
:10164000730EE96E070E7815789DE926000EEA22E2
:10165000E950770803E1EA2C01D0788DEF50006E55
:1016600008E178BD06D078B916D078B702D0200E40
:1016700003D078877899300E0026EACF72F1E9CF4F
:1016800071F100C096F1000121EC04F072C1EAFF93
:1016900071C1E9FF0101EE5078ADDAD70001120007
:1016A00001016C6B6C51FA0FD8B09BD3060F00018F
:1016B000F9EF0EF0E80EF66E030EF76E4EEC04F046
:1016C000F00EF66E030EF76E4EEC04F0040E010100
:1016D0006D6FFA0E996F000167EC03F001016D2F39
:1016E000F8D7320E936F020E946F7C0E966F150E24
:1016F000956F00017FEC04F0928480B408D0FA0E5C
:101700000101996F000167EC03F094908B80928A3D
:1017100080BA08D0FA0E0101996F000167EC03F05E
:1017200094908B90928680B6E7D7320E0101936F2A
:10173000020E946F7C0E966F150E956F00017FEC74
:1017400004F0040E01016D6FFA0E996F000167EC51
:1017500003F001016D2FF8D7010E6C6F42D3020E1A
:10176000F66E040EF76E4EEC04F00C0EF66E040EE0
:10177000F76E4EEC04F0040E01016D6FFA0E996FD6
:10178000000167EC03F001016D2FF8D7320E936F63
:10179000020E946F7C0E966F150E956F00017FEC14
:1017A00004F08BDC5B50020809E2FF0A03E15A50A7
:1017B000200804E20A0E596E94908B805B50020858
:1017C00008E303E15A50BB0804E30B0E596E9490F2
:1017D0008B805B5002080FE303E15A50BB080BE318
:1017E0005D50020808E303E15C50BB0804E30C0E03
:1017F000596E94908B805B50020816E303E15A50B7
:10180000BB0812E35D5002080FE303E15C50BB0824
:101810000BE35F50020808E303E15E50BB0804E3FA
:101820000D0E596E94908B9060C093F1010E0101E2
:10183000946F0001FAEC05F002C062F001C061F0A3
:101840000C0E0101966F000121EC04F062C0EAFF6A
:1018500061C0E9FF50EC07F059500A083CE160C054
:1018600093F1020E0101946F0001FAEC05F002C041
:1018700064F001C063F060C093F1090E0101946F40
:101880000001FAEC05F002C066F001C065F00A0E36
:101890000101966F000121EC04F064C0EAFF63C00F
:1018A000E9FF50EC07F03A0E0101966F000121ECC0
:1018B00004F066C0EAFF65C0E9FF50EC07F0040ED3
:1018C00001016D6FFA0E996F000167EC03F00101E1
:1018D0006D2FF8D7000159500B0822E160C093F139
:1018E000020E0101946F0001FAEC05F002C064F0F1
:1018F00001C063F00A0E0101966F000121EC04F0B3
:1019000064C0EAFF63C0E9FF50EC07F0210EF66EF9
:10191000040EF76E070E0101936F00010BEC08F047
:1019200059500C083AE160C093F1020E0101946F26
:101930000001FAEC05F002C064F001C063F060C081
:1019400093F1040E0101946F0001FAEC05F002C05E
:1019500066F001C065F00A0E0101966F000121ECEE
:1019600004F064C0EAFF63C0E9FF50EC07F03A0EF0
:101970000101966F000121EC04F066C0EAFF65C02A
:10198000E9FF50EC07F0300EF66E040EF76E030E12
:101990000101936F00010BEC08F059500D0822E192
:1019A00060C093F1020E0101946F0001FAEC05F0A2
:1019B00002C064F001C063F00A0E0101966F0001DD
:1019C00021EC04F064C0EAFF63C0E9FF50EC07F0CB
:1019D000370EF66E040EF76E080E0101936F0001CC
:1019E0000BEC08F0FA0E0101996F000167EC03F0AF
:1019F000928680B6D6D6320E0101936F020E946F96
:101A00007C0E966F150E956F00017FEC04F0040EAE
:101A100001016D6FFA0E996F000167EC03F001018F
:101A20006D2FF8D7020E6C6FDCD1400EF66E040EEF
:101A3000F76E4EEC04F04A0EF66E040EF76E4EECA6
:101A400004F0040E01016D6FFA0E996F000167EC4E
:101A500003F001016D2FF8D7320E936F020E946FD1
:101A60007C0E966F150E956F00017FEC04F0929E30
:101A7000898E640E0101996F000167EC03F0929E5C
:101A8000899E640E0101996F000167EC03F0928654
:101A900080B6EDD7320E0101936F020E946F7C0E6B
:101AA000966F150E956F00017FEC04F0040E010196
:101AB0006D6FFA0E996F000167EC03F001016D2F55
:101AC000F8D7030E6C6F8DD15C0EF66E040EF76EB8
:101AD0004EEC04F0660EF66E040EF76E4EEC04F05B
:101AE000040E01016D6FFA0E996F000167EC03F0AF
:101AF00001016D2FF8D7320E936F020E946F7C0E9A
:101B0000966F150E956F00017FEC04F0929C898C06
:101B1000640E0101996F000167EC03F0929C899CAF
:101B2000640E0101996F000167EC03F0928680B6A4
:101B3000EDD7320E0101936F020E946F7C0E966FFB
:101B4000150E956F00017FEC04F0040E01016D6F1E
:101B5000FA0E996F000167EC03F001016D2FF8D7C1
:101B6000040E6C6F3ED1780EF66E040EF76E4EECDE
:101B700004F0860EF66E040EF76E4EEC04F0040EC2
:101B800001016D6FFA0E996F000167EC03F001011E
:101B90006D2FF8D7320E936F020E946F7C0E966FF6
:101BA000150E956F00017FEC04F0938081B01ED07C
:101BB000980EF66E040EF76E4EEC04F0A60EF66E5E
:101BC000040EF76E4EEC04F0FA0E0101996F00015D
:101BD00067EC03F0FA0E0101936F050E946F7C0E13
:101BE000966F150E956F00017FEC04F0938281B221
:101BF0001ED0AE0EF66E040EF76E4EEC04F0BC0E68
:101C0000F66E040EF76E4EEC04F0FA0E0101996FB9
:101C1000000167EC03F0FA0E0101936F050E946F5B
:101C20007C0E966F150E956F00017FEC04F0928686
:101C300080B6BBD7320E0101936F020E946F7C0EFB
:101C4000966F150E956F00017FEC04F0040E0101F4
:101C50006D6FFA0E996F000167EC03F001016D2FB3
:101C6000F8D7050E6C6FBDD0C40EF66E040EF76E7D
:101C70004EEC04F0CC0EF66E040EF76E4EEC04F053
:101C8000040E01016D6FFA0E996F000167EC03F00D
:101C900001016D2FF8D7320E936F020E946F7C0EF8
:101CA000966F150E956F00017FEC04F0BE6A6C6BA9
:101CB0006B6B928480B431D0320E0101996F0001B8
:101CC00067EC03F0010E6B27000E6C236C510208C9
:101CD00009E2FF0A03E16B51E80804E2030E6C6FAE
:101CE000E80E6B6FDE0EF66E040EF76E070E010146
:101CF000936F00010BEC08F0100EE96E6CC072F1EE
:101D00006BC071F16ADCE80EF66E040EF76E030E1E
:101D10000101936F00010BEC08F0928A80BA2DD07C
:101D2000320E0101996F000167EC03F0010E6B5F49
:101D3000000E6C5B6C5306E16B51090803E36C6B9E
:101D40000A0E6B6FEC0EF66E040EF76E070E0101B5
:101D5000936F00010BEC08F0100EE96E6CC072F18D
:101D60006BC071F13ADCF60EF66E040EF76E030EE0
:101D70000101936F00010BEC08F06CC002F06BC026
:101D800001F00232013202320132023201C0BEFFE2
:101D900002320230300B006EBD50CF0B0010BD6E12
:101DA000928680B686D76C6B6B6B320E0101936F97
:101DB000020E946F7C0E966F150E956F00017FECEE
:101DC00004F0040E01016D6FFA0E996F000167ECCB
:101DD00003F001016D2FF8D7BE6A060E6C6F01D0BB
:101DE00001016C510608D8B401D05CD400017FEF2A
:101DF00013F0E824F76AF7360D0FF66E1E0EF72281
:101E00000A00F550FA6E0800F550F96EB4165E1728
:101E10002A1AC81A661B681CF2CF93F1F29E100EA4
:101E2000A96EA69CA69EA680A850010193BFF28E23
:101E30006C6F140E6D6F6C51640802E2140E6C6FBF
:101E40006C51140828E1010EEA6E700EE96E210E45
:101E5000016EF76A000E0001ACEC00F00A00090008
:101E6000F5CFEEFF012EFBD72C0E0101916F926B87
:101E7000010E0201256F700E246F010E276F910E67
:101E8000266F010E286F0001C7EC05F002C06FF14C
:101E900001C06EF101016C51150828E1010EEA6ED6
:101EA000700EE96E210E016EF76A000E0001ACECB7
:101EB00000F00A000900F5CFEEFF012EFBD72C0E33
:101EC0000101916F926B010E0201256F700E246F5C
:101ED000010E276F910E266F020E286F0001C7ECCE
:101EE00005F002C06FF101C06EF101016C511608DE
:101EF00028E1010EEA6E700EE96E210E016EF76A9E
:101F0000000E0001ACEC00F00A000900F5CFEEFF76
:101F1000012EFBD72C0E0101916F926B010E020175
:101F2000256F700E246F010E276F910E266F030E22
:101F3000286F0001C7EC05F002C06FF101C06EF11F
:101F400001016C51170828E1010EEA6E700EE96E6E
:101F5000210E016EF76A000E0001ACEC00F00A00E1
:101F60000900F5CFEEFF012EFBD72C0E0101916F7A
:101F7000926B010E0201256F700E246F010E276F08
:101F8000910E266F040E286F0001C7EC05F002C009
:101F90006FF101C06EF101010C0E966F000121EC92
:101FA00004F06FC1EAFF6EC1E9FF50EC07F0A40E28
:101FB000F66E050EF76E4EEC04F0040E0101936F01
:101FC000FA0E996F000167EC03F00101932FF8D727
:101FD000010E976F986F00010EEC04F00C0E0101DA
:101FE000966F000121EC04F06FC1EAFF6EC1E9FFBA
:101FF00050EC07F0B60EF66E050EF76E4EEC04F0E0
:10200000928A80BA1AD0640E0101996F000167ECC0
:1020100003F0320E0101936F020E946F7C0E966FE7
:10202000150E956F00017FEC04F001016D076D51F5
:10203000130802E3140E6D6F0001928480B41AD06D
:10204000640E0101996F000167EC03F0320E01018B
:10205000936F020E946F7C0E966F150E956F0001B4
:102060007FEC04F001016D2B6D51170802E2170E91
:102070006D6F000101016D51140828E1010EEA6E37
:10208000700EE96E210E016EF76A000E0001ACECD5
:1020900000F00A000900F5CFEEFF012EFBD72C0E51
:1020A0000101916F926B010E0201256F700E246F7A
:1020B000010E276F910E266F010E286F0001C7ECED
:1020C00005F002C06FF101C06EF101016D511508FC
:1020D00028E1010EEA6E700EE96E210E016EF76ABC
:1020E000000E0001ACEC00F00A000900F5CFEEFF95
:1020F000012EFBD72C0E0101916F926B010E020194
:10210000256F700E246F010E276F910E266F020E41
:10211000286F0001C7EC05F002C06FF101C06EF13D
:1021200001016D51160828E1010EEA6E700EE96E8C
:10213000210E016EF76A000E0001ACEC00F00A00FF
:102140000900F5CFEEFF012EFBD72C0E0101916F98
:10215000926B010E0201256F700E246F010E276F26
:10216000910E266F030E286F0001C7EC05F002C028
:102170006FF101C06EF101016D51170828E1010EE8
:10218000EA6E700EE96E210E016EF76A000E000114
:10219000ACEC00F00A000900F5CFEEFF012EFBD7F2
:1021A0002C0E0101916F926B010E0201256F700ED2
:1021B000246F010E276F910E266F040E286F000109
:1021C000C7EC05F002C06FF101C06EF10101640EB1
:1021D000996F000167EC03F0928680A602D001019E
:1021E000F7D6320E0101936F020E946F7C0E966F3C
:1021F000150E956F00017FEC04F0F250006EF29E18
:10220000100EA96E6DC1A8FFA69CA69EA6840F0104
:10221000550EA76EAA0EA76EA682A6B2FED7A694EA
:102220000050F2126DC193F1050E0101946F00018F
:10223000FAEC05F002C06FF101C06EF1C80EF66E47
:10224000050EF76E030E0101936F00010BEC08F011
:102250006FC1EAFF6EC1E9FF50EC07F0210E0101EA
:10226000966F000121EC04F0210E0101966F000130
:1022700021EC04F06DC160F0040E0101936FFA0EC1
:10228000996F000167EC03F00101932FF8D700016B
:10229000C1EF13F0F2CF6FF1F29E060EA96EA69C6D
:1022A000A69EA680A85001016FBFF28E6E6F6E5180
:1022B000FA0802E2010E6E6F60C093F1030E946F94
:1022C0000001FAEC05F002C06DF101C06CF10C0EDA
:1022D0000101966F000121EC04F06DC1EAFF6CC1B1
:1022E000E9FF50EC07F03D0E0101966F000121EC73
:1022F00004F06EC16FF11B0E0101706F0001AAECBA
:1023000008F0700EF66E050EF76E030E0101936F66
:1023100000010BEC08F0740EF66E050EF76E4EEC35
:1023200004F0040E01016F6FFA0E996F000167EC63
:1023300003F001016F2FF8D7010E976F986F00011E
:102340000EEC04F00101706B6EC16FF1726B640EE4
:10235000716F00014CEC08F002C070F101C06FF128
:102360000C0E0101966F000121EC04F06DC1EAFF33
:102370006CC1E9FF50EC07F03D0E0101966F0001C2
:1023800021EC04F0100EE96E70C172F16FC171F1B1
:10239000EDEC0AF08D0EF66E050EF76E040E0101DF
:1023A000936F00010BEC08F0920EF66E050EF76EBF
:1023B0004EEC04F0928A80BA19D0640E0101996F34
:1023C000000167EC03F0320E0101936F020E946F6F
:1023D0007C0E966F150E956F00017FEC04F00101E5
:1023E0006E076E5302E1010E6E6F0001928480B49D
:1023F0001AD0640E0101996F000167EC03F0320EF0
:102400000101936F020E946F7C0E966F150E956FFF
:1024100000017FEC04F001016E2B6E51640802E2B2
:10242000640E6E6F0001640E0101996F000167EC8C
:1024300003F0928680A602D001017ED7320E010100
:10244000936F020E946F7C0E966F150E956F0001C0
:102450007FEC04F0F250006EF29E060EA96E6EC183
:10246000A8FFA69CA69EA6840F01550EA76EAA0ED5
:10247000A76EA682A6B2FED7A6940050F2126EC135
:1024800056F060C093F1050E0101946F0001FAEC63
:1024900005F002C06DF101C06CF10C0E0101966FE8
:1024A000000121EC04F06DC1EAFF6CC1E9FF50ECC2
:1024B00007F0040E01016F6FFA0E996F000167ECCF
:1024C00003F001016F2FF8D70001FAEF13F00101BB
:1024D000696BD00EF66E050EF76E00014EEC04F03F
:1024E000DC0EF66E050EF76E4EEC04F0040E0101E4
:1024F0006C6FFA0E996F000167EC03F001016C2F0D
:10250000F8D700016C6B6B6B928480B41AD0960E76
:102510000101996F000167EC03F00101692B69BFAC
:1025200005D06951060802E2010E696F320E936F01
:10253000020E946F7C0E966F150E956F00017FEC66
:1025400004F0928A80BA1AD0960E0101996F0001A8
:1025500067EC03F00101690769BF03D06951000806
:1025600002E3060E696F320E936F020E946F7C0EBB
:10257000966F150E956F00017FEC04F00101692D37
:102580003DD060C093F1060E946F0001FAEC05F0A7
:1025900002C06BF101C06AF10C0E0101966F0001DF
:1025A00021EC04F0200E0101966F000121EC04F0F3
:1025B0006BC1EAFF6AC1E9FF50EC07F0EE0EF66E60
:1025C000050EF76E4EEC04F0928680B618D0640EBD
:1025D0000101996F000167EC03F0320E0101936F66
:1025E000020E946F7C0E966F150E956F00017FECB6
:1025F00004F0EBEF08F0020E0101696F0001010128
:10260000695102083DE160C093F10C0E946F000126
:10261000FAEC05F002C06BF101C06AF10C0E010189
:10262000966F000121EC04F0200E0101966F00016D
:1026300021EC04F06BC1EAFF6AC1E9FF50EC07F03E
:10264000000EF66E060EF76E4EEC04F0928680B623
:1026500018D0640E0101996F000167EC03F0320E8F
:102660000101936F020E946F7C0E966F150E956F9D
:1026700000017FEC04F0EAEF09F0030E0101696F3D
:1026800000010101695103083DE160C093F1070EAB
:10269000946F0001FAEC05F002C06BF101C06AF121
:1026A0000C0E0101966F000121EC04F0200E0101D7
:1026B000966F000121EC04F06BC1EAFF6AC1E9FFEB
:1026C00050EC07F0120EF66E060EF76E4EEC04F0AC
:1026D000928680B618D0640E0101996F000167ECF4
:1026E00003F0320E0101936F020E946F7C0E966F11
:1026F000150E956F00017FEC04F050EF0BF0040E07
:102700000101696F00010101695104083DE160C0E8
:1027100093F1080E946F0001FAEC05F002C06BF122
:1027200001C06AF10C0E0101966F000121EC04F06A
:10273000200E0101966F000121EC04F06BC1EAFF4D
:102740006AC1E9FF50EC07F0240EF66E060EF76E34
:102750004EEC04F0928680B618D0640E0101996F99
:10276000000167EC03F0320E0101936F020E946FCB
:102770007C0E966F150E956F00017FEC04F00CEF48
:102780000FF0050E0101696F000101016951050893
:1027900034E1560E6A6F410E6B6F0C0E966F00019E
:1027A00021EC04F0200E0101966F000121EC04F0F1
:1027B000360EF66E060EF76E4EEC04F0400EF66E18
:1027C000060EF76E4EEC04F0928680B617D0640EBB
:1027D0000101996F000167EC03F0320E0101936F64
:1027E000020E946F7C0E966F150E956F00017FECB4
:1027F00004F050D5060E0101696F00010101695115
:1028000006082FE160C093F1090E946F0001FAEC05
:1028100005F002C06BF101C06AF10C0E0101966F68
:10282000000121EC04F0200E0101966F000121EC63
:1028300004F06BC1EAFF6AC1E9FF50EC07F0520EE9
:10284000F66E060EF76E4EEC04F0928680B60AD055
:10285000FA0E0101996F000167EC03F00101696B49
:1028600009D00001FA0E0101996F000167EC03F035
:102870004BD6010160C093F1010E946F0001FAEC98
:1028800005F002C062F001C061F060EF19F0F86A73
:10289000F184D08E078E700ED36E9B8C9B9E316A16
:1028A000306A2F6A2E6A396A386A3B6A3A6A3D6A28
:1028B0003C6A3F6A3E6A406A446A436A426A416AC5
:1028C000486A476A466A456A4C6A4B6A4A6A496A74
:1028D000506A4F6A4E6A4D6A546A536A526A516A24
:1028E000556A010E566E576A586A0A0E596E5B6A2F
:1028F0005A6A5D6A5C6A5F6A5E6A606B6C6B6B6B7E
:102900006E6B6D6B0F01386B396B3A6B3B6B3C6BCD
:10291000776A786A796A05D00200320000FA406F5F
:102920000000000EF86E290EF76E180EF66E090004
:10293000F550006E000A13E00900F550016EE8BE84
:1029400005D00F0BEA6E0900F5CFE9FF01BC0900C5
:1029500001AC0900F5CFEEFF004EE9D7F9D7F86AD0
:10296000700ED36E9B8C9B9E416B776A040E786EC3
:10297000796E426BF00E66165D1757175417CD6AC5
:10298000CC6A000E0609BA6EC70EBB6EF00EBD16FD
:10299000000E516F000E526F4D6B4E6B4A6F000E62
:1029A0004B6FC050C00B0709C06EC08EC280C150B3
:1029B000F00BC16E000E386F070E3C6F000E396FC2
:1029C0003A6F3B6F00015DEF03F0BE6AD6EF03F094
:1029D000640EF66E060EF76E4EEC04F0740EF66E94
:1029E000060EF76E4EEC04F0926A896A9298899806
:1029F000040E0101696FFA0E996F000167EC03F094
:102A00000101692FF8D792988988040E696FFA0E30
:102A1000996F000167EC03F00101692FF8D7F2CF3D
:102A200069F1F29EA96AA69CA69EA680A85069BFDD
:102A3000F28E556E553C02D0050E556EF2CF69F1FF
:102A4000F29E050EA96EA69CA69EA680A85069BF00
:102A5000F28E576E573C02D0050E576EF2CF69F1D9
:102A6000F29E060EA96EA69CA69EA680A85069BFDF
:102A7000F28E566E563C02D0010E566E320E936F99
:102A8000020E946F7C0E966F150E956F00017FEC11
:102A900004F0F2CF69F1F29E100EA96EA69CA69EDC
:102AA000A680A850010169BFF28E0001606F603DF1
:102AB00001D002D0605302E1140E606F60C093F148
:102AC000010E0101946F0001FAEC05F002C062F002
:102AD00001C061F060C093F1020E0101946F00012A
:102AE000FAEC05F002C064F001C063F060C093F13D
:102AF000030E0101946F0001FAEC05F002C068F0CA
:102B000001C067F04F0E0101696F54C06DF153C0F1
:102B10006CF152C06BF151C06AF10001A4EC06F0F7
:102B2000546A536A02C052F001C051F060C093F180
:102B30000B0E0101946F0001FAEC05F002C06AF07F
:102B400001C069F00C0E0101966F000121EC04F048
:102B500062C0EAFF61C0E9FF50EC07F00A0E010114
:102B6000966F000121EC04F06AC0EAFF69C0E9FF3A
:102B700050EC07F03A0E0101966F000121EC04F0D1
:102B8000410EE96E54C070F153C06FF152C06EF146
:102B900051C06DF1ACEC07F0060E0101696FFA0E41
:102BA000996F000167EC03F00101692FF8D70C0E53
:102BB000966F000121EC04F062C0EAFF61C0E9FFFA
:102BC00050EC07F00A0E0101966F000121EC04F0B1
:102BD00064C0EAFF63C0E9FF50EC07F0870EF66EB1
:102BE000060EF76E050E0101936F00010BEC08F065
:102BF00031C050F030C04FF02FC04EF02EC04DF01D
:102C00004D502E5C0101696F4E502F586A6F4F5026
:102C100030586B6F505031586C6F6C5338E16B53B8
:102C200036E16A51750833E303E169512F082FE358
:102C30000C0E966F000121EC04F062C0EAFF61C047
:102C4000E9FF50EC07F08E0EF66E060EF76E060EDC
:102C50000101936F00010BEC08F0410EE96E31C0E9
:102C600070F130C06FF12FC06EF12EC06DF1ACEC81
:102C700007F0FA0E0101996F000167EC03F09380F1
:102C800081A003D0010103D00001BAD701019492C1
:102C90008B8231C050F030C04FF02FC04EF02EC0AC
:102CA0004DF0938081B003D0938281B225D05852E9
:102CB00023E159500A0820E0640E996F000167EC87
:102CC00003F0640E0101936F050E946F7C0E966FF6
:102CD000150E956F00017FEC04F094948B84949210
:102CE0008B92010E586E31C044F030C043F02FC0BB
:102CF00042F02EC041F0010145502E5C696F4650F4
:102D00002F586A6F475030586B6F485031586C6F6E
:102D1000706B6F6B6E6B56C06DF1746B736B726B17
:102D2000640E716F00011FEC08F0035001016C5D2F
:102D30000EE30BE102506B5D0AE307E101506A5DAF
:102D400006E303E16951005C02E294928B925852CF
:102D5000D8B4F8D060C093F1010E946F0001FAEC82
:102D600005F002C062F001C061F060C093F1030E93
:102D70000101946F0001FAEC05F002C068F001C097
:102D800067F00C0E0101966F000121EC04F062C0A7
:102D9000EAFF61C0E9FF50EC07F041502E5C0101F1
:102DA000696F42502F586A6F435030586B6F4450D0
:102DB00031586C6F0A0E966F000121EC04F068C068
:102DC000EAFF67C0E9FF50EC07F03A0E0101966F89
:102DD000000121EC04F0410EE96E6CC170F16BC191
:102DE0006FF16AC16EF169C16DF1ACEC07F0415051
:102DF0002E5C0101696F42502F586A6F4350305862
:102E00006B6F445031586C6F706B55C06FF1030E8F
:102E1000726FE80E716F00014CEC08F002C003F015
:102E200001C000F002C001F0026A036A0350010110
:102E30006C5D4DE30BE102506B5D49E307E101502E
:102E40006A5D45E303E16951005C41E2582C3FD0E3
:102E500094948B9494928B82010E5126D8B0522A6E
:102E6000D8B4532AD8B4542A4B0E696F54C06DF1AC
:102E700053C06CF152C06BF151C06AF10001A4EC77
:102E800006F00A0E0101936F946F7C0E966F150E7B
:102E9000956F00017FEC04F031C04CF030C04BF076
:102EA0002FC04AF02EC049F031C044F030C043F08A
:102EB0002FC042F02EC041F0020E586E31C048F0D3
:102EC00030C047F02FC046F02EC045F001014950F8
:102ED0002E5C696F4A502F586A6F4B5030586B6F99
:102EE0004C5031586C6F706B6F6B6E6B57C06DF1DF
:102EF000746B736B030E726FE80E716F00011FEC41
:102F000008F0035001016C5D1CE30BE102506B5DA6
:102F100018E307E101506A5D14E303E16951005CC5
:102F200010E2585002080DE1316A306A2F6A2E6AA9
:102F3000586A31C044F030C043F02FC042F02EC078
:102F400041F05DD14D502E5C696F4E502F586A6F25
:102F50004F5030586B6F505031586C6F6C530CE1C0
:102F60006B530AE16A510208D8B0F3D0FF0A04E1BA
:102F70006951E808D8B0EDD060C093F1010E946FAC
:102F80000001FAEC05F002C062F001C061F00C0E25
:102F90000101966F000121EC04F062C0EAFF61C0FC
:102FA000E9FF50EC07F059500A084BE160C093F17B
:102FB000020E0101946F0001FAEC05F002C064F00A
:102FC00001C063F060C093F10A0E0101946F00012B
:102FD000FAEC05F002C066F001C065F00A0E0101CE
:102FE000966F000121EC04F064C0EAFF63C0E9FFC2
:102FF00050EC07F03A0E0101966F000121EC04F04D
:1030000066C0EAFF65C0E9FF50EC07F094948B942A
:10301000586AFA0E0101936F050E946F7C0E966F3D
:10302000150E956F00017FEC04F0040E0101696F2D
:10303000FA0E996F000167EC03F00101692FF8D7D0
:10304000000159500B0822E160C093F1020E01010A
:10305000946F0001FAEC05F002C064F001C063F067
:103060000A0E0101966F000121EC04F064C0EAFF32
:1030700063C0E9FF50EC07F09B0EF66E060EF76E8C
:10308000070E0101936F00010BEC08F059500C087A
:103090003AE160C093F1020E0101946F0001FAEC75
:1030A00005F002C064F001C063F060C093F1040E4B
:1030B0000101946F0001FAEC05F002C066F001C056
:1030C00065F00A0E0101966F000121EC04F064C066
:1030D000EAFF63C0E9FF50EC07F03A0E0101966F7A
:1030E000000121EC04F066C0EAFF65C0E9FF50EC86
:1030F00007F0AA0EF66E060EF76E030E0101936F2F
:1031000000010BEC08F059500D0822E160C093F16A
:10311000020E0101946F0001FAEC05F002C064F0A8
:1031200001C063F00A0E0101966F000121EC04F06A
:1031300064C0EAFF63C0E9FF50EC07F0B10EF66E21
:10314000060EF76E080E0101936F00010BEC08F0FC
:1031500001014D502E5C696F4E502F586A6F4F50D1
:1031600030586B6F505031586C6F6C530AE16B5391
:1031700008E16A51060843E2FF0A03E16951D008F9
:103180003EE260C093F10B0E946F0001FAEC05F083
:1031900002C06AF001C069F00C0E0101966F0001D7
:1031A00021EC04F062C0EAFF61C0E9FF50EC07F0D7
:1031B0000A0E0101966F000121EC04F06AC0EAFFDB
:1031C00069C0E9FF50EC07F03A0E0101966F00016B
:1031D00021EC04F0410EE96E54C070F153C06FF160
:1031E00052C06EF151C06DF1ACEC07F031C050F03F
:1031F00030C04FF02FC04EF02EC04DF00101000145
:103200005DEC08F05B50020809E2FF0A03E15A5046
:10321000200804E20A0E596E94908B805B500208DD
:1032200008E303E15A50BB0804E30B0E596E949077
:103230008B805B5002080FE303E15A50BB080BE39D
:103240005D50020808E303E15C50BB0804E30C0E88
:10325000596E94908B805B50020816E303E15A503C
:10326000BB0812E35D5002080FE303E15C50BB08AA
:103270000BE35F50020808E303E15E50BB0804E380
:103280000D0E596E94908B90928680B619D0FA0EDE
:103290000101996F000167EC03F0402A40500608D5
:1032A0000FE2406A320E0101936F020E946F7C0EA2
:1032B000966F150E956F00017FEC04F067EF12F02A
:1032C000640E0101996F000167EC03F00101E9D47C
:0232D0000300F9
:020000040030CA
:0E00000000A8191E00B5810000800FE00F401F
:00000001FF
;PIC18F45K22
;CRC=2259  CREATED="26-Aðu-20 12:14"
